:020000020000FC
:1000000038E03EBF3FEF3DBF0CE204B93D9A00E54A
:100010000CBD459A459849E04EBD64D040E04EBDC8
:1000200061D0459A45984AE04EBD5CD04FE04EBD48
:1000300059D0459A45984BE04EBD54D043E04EBD53
:1000400051D0459A45984CE04EBD4CD041E04EBD54
:1000500049D0459A45984FE04EBD44D040E04EBD52
:1000600041D0459A459841E04EBD3CD04CE64EBD4E
:1000700039D0459A459842E04EBD34D042E94EBD54
:1000800031D0459A459843E04EBD2CD042E94EBD53
:1000900029D0459A459844E04EBD24D04CE64EBD4B
:1000A00021D0459A459845E04EBD1CD040E04EBD5C
:1000B00019D0459A459846E04EBD14D040E04EBD5B
:1000C00011D0459A459847E04EBD0CD040E04EBD5A
:1000D00009D0459A459848E04EBD04D040E04EBD59
:1000E00001D0459A2DB527FFFDCF08950000FECF22
:00000001FF
