:020000020000FC
:1000000038E03EBF3FEF3DBF0CE204B93D9A00E54A
:100010000CBD459A7AD2459849E04EBD72D240E077
:100020004EBD6FD2459A45984AE04EBD6AD24FE028
:100030004EBD67D2459A45984BE04EBD62D247E02F
:100040004EBD5FD2459A45984CE04EBD5AD241E034
:100050004EBD57D2459A45984FE04EBD52D240E032
:100060004EBD4FD2459A459841E04EBD4AD246E238
:100070004EBD47D2459A459842E04EBD42D249E432
:100080004EBD3FD2459A459843E04EBD3AD249E431
:100090004EBD37D2459A459844E04EBD32D249E430
:1000A0004EBD2FD2459A459845E04EBD2AD242E337
:1000B0004EBD27D2459A459846E04EBD22D240E03B
:1000C0004EBD1FD2459A459847E04EBD1AD240E03A
:1000D0004EBD17D2459A459848E04EBD12D240E039
:1000E0004EBD0FD2459A11D2459849E04EBD09D276
:1000F00040E04EBD06D2459A45984AE04EBD01D239
:100100004FE04EBDFED1459A45984BE04EBDF9D12A
:1001100047E04EBDF6D1459A45984CE04EBDF1D131
:1001200041E04EBDEED1459A45984FE04EBDE9D134
:1001300040E04EBDE6D1459A459841E04EBDE1D143
:1001400041E64EBDDED1459A459842E04EBDD9D13B
:1001500041E54EBDD6D1459A459843E04EBDD1D13B
:1001600049E44EBDCED1459A459844E04EBDC9D133
:1001700045E44EBDC6D1459A459845E04EBDC1D136
:1001800043E44EBDBED1459A459846E04EBDB9D137
:1001900040E04EBDB6D1459A459847E04EBDB1D13D
:1001A00040E04EBDAED1459A459848E04EBDA9D13C
:1001B00040E04EBDA6D1459AA8D1459849E04EBD34
:1001C000A0D140E04EBD9DD1459A45984AE04EBD34
:1001D00098D14FE04EBD95D1459A45984BE04EBD24
:1001E00090D147E04EBD8DD1459A45984CE04EBD2B
:1001F00088D141E04EBD85D1459A45984FE04EBD2E
:1002000080D140E04EBD7DD1459A459841E04EBD3C
:1002100078D141E04EBD75D1459A459842E04EBD3A
:1002200070D141E04EBD6DD1459A459843E04EBD39
:1002300068D14FE74EBD65D1459A459844E04EBD23
:1002400060D141E04EBD5DD1459A459845E04EBD37
:1002500058D141E04EBD55D1459A459846E04EBD36
:1002600050D140E04EBD4DD1459A459847E04EBD36
:1002700048D140E04EBD45D1459A459848E04EBD35
:1002800040D140E04EBD3DD1459A3FD1459849E02F
:100290004EBD37D140E04EBD34D1459A45984AE035
:1002A0004EBD2FD14FE04EBD2CD1459A45984BE025
:1002B0004EBD27D147E04EBD24D1459A45984CE02C
:1002C0004EBD1FD141E04EBD1CD1459A45984FE02F
:1002D0004EBD17D140E04EBD14D1459A459841E03E
:1002E0004EBD0FD14FE34EBD0CD1459A459842E02B
:1002F0004EBD07D140E44EBD04D1459A459843E038
:100300004EBDFFD040E44EBDFCD0459A459844E038
:100310004EBDF7D040E44EBDF4D0459A459845E037
:100320004EBDEFD04FE34EBDECD0459A459846E028
:100330004EBDE7D040E04EBDE4D0459A459847E039
:100340004EBDDFD040E04EBDDCD0459A459848E038
:100350004EBDD7D040E04EBDD4D0459AD6D04598BA
:1003600049E04EBDCED040E04EBDCBD0459A459839
:100370004AE04EBDC6D04FE04EBDC3D0459A459829
:100380004BE04EBDBED047E04EBDBBD0459A459830
:100390004CE04EBDB6D041E04EBDB3D0459A459835
:1003A0004FE04EBDAED040E04EBDABD0459A459833
:1003B00041E04EBDA6D04FE74EBDA3D0459A45982B
:1003C00042E04EBD9ED048E04EBD9BD0459A459838
:1003D00043E04EBD96D044E14EBD93D0459A45983A
:1003E00044E04EBD8ED042E24EBD8BD0459A45983A
:1003F00045E04EBD86D041E44EBD83D0459A459838
:1004000046E04EBD7ED040E04EBD7BD0459A45983B
:1004100047E04EBD76D040E04EBD73D0459A45983A
:1004200048E04EBD6ED040E04EBD6BD0459A6DD0D9
:10043000459849E04EBD65D040E04EBD62D0459A3A
:1004400045984AE04EBD5DD04FE04EBD5AD0459A2A
:1004500045984BE04EBD55D047E04EBD52D0459A31
:1004600045984CE04EBD4DD041E04EBD4AD0459A36
:1004700045984FE04EBD45D040E04EBD42D0459A34
:10048000459841E04EBD3DD04EE74EBD3AD0459A2D
:10049000459842E04EBD35D04BE04EBD32D0459A36
:1004A000459843E04EBD2DD049E04EBD2AD0459A37
:1004B000459844E04EBD25D04BE04EBD22D0459A34
:1004C000459845E04EBD1DD04EE74EBD1AD0459A29
:1004D000459846E04EBD15D040E04EBD12D0459A3D
:1004E000459847E04EBD0DD040E04EBD0AD0459A3C
:1004F000459848E04EBD05D040E04EBD02D0459A3B
:1005000089CD2DB527FFFDCF089564E67FEF8FEFEE
:100510008A95F1F700007A95D1F76A95B9F70895B1
:00000001FF
